:020000040800F2
:100000007806002005010008E71C00084D1A0008CA
:10001000E51C0008B30300082722000800000000C8
:10002000000000000000000000000000411F000868
:10003000D903000800000000211F0008431F00082A
:100040001F0100081F0100081F0100081F01000810
:100050001F0100081F0100081F0100081F01000800
:100060001F0100081F0100081F010008B503000858
:10007000C1030008CD0300081F0100081F0100088C
:100080001F0100081F010008510300081F0100089C
:100090001F0100081F0100081F0100081F010008C0
:1000A0001F0100081F0100081F0100081F010008B0
:1000B0001F010008C11F00081F0100081F010008E0
:1000C0001F0100081F0100081F010008251F00086C
:1000D0001F0100081F0100081F0100081F01000880
:1000E0001F0100081F0100081F010008DFF810D0E1
:1000F00000F01CF90048004731240008AFF30080ED
:10010000780600200648804706480047FEE7FEE7DD
:10011000FEE7FEE7FEE7FEE7FEE7FEE7FEE7FEE7B7
:10012000BF1F0008ED000008D2B201E000F8012B6B
:10013000491EFBD270470022F6E710B513460A4667
:1001400004461946FFF7F0FF204610BDF0B480EAE0
:100150000102D40F4200B2EB410F02D20246084620
:1001600011464A0042D0C30DDDB2C1F3C752AD1AE9
:10017000202D35DAC1F3160141F4000204B15242D8
:10018000C5F1200602FA06F12A411044B3EBD05F14
:1001900023D0C4B1012DA0EBC35009DCF0BC4FF05B
:1001A000004202EAC352DBB200F5000000F090B852
:1001B000400000F1807000EBC350A0F1807040EA75
:1001C000D170490009E0490841EAC071A0EBC35071
:1001D00000F50000400800EBC350F0BC00F06FB821
:1001E0006142012202EB4101001BF6E7F0BC7047BF
:1001F00081F00041AAE780F00040A7E780EA010211
:1002000010B502F00043400022D04A001FD0010E7A
:1002100001EB1261C0F35600C2F3560240F4000035
:1002200042F40002A0FB022000047F39140400D035
:10023000401C50EA124001D44000491EC2B20C06D4
:1002400004EBD010401C4008802A02D003E00020BC
:1002500010BD20F00100002900DA0020184310BD75
:1002600096230022114600F033B820F00040C10D63
:10027000C0F3160040F400007F2901DA0020704727
:10028000962903DCC1F19601C84070479639884031
:10029000704730B50B46014600202022012409E0BA
:1002A00021FA02F59D4205D303FA02F5491B04FA2F
:1002B00002F52844151EA2F10102F1DC30BD00292F
:1002C000A8BF7047401C490008BF20F001007047DC
:1002D00010B4B0FA80FC00FA0CF050EA010404BF3C
:1002E00010BC704749B1CCF1200421FA04F411FA92
:1002F0000CF118BF012121430843A3EB0C01CB1DD6
:100300004FEA00614FEA102042BF002010BC704746
:1003100000EBC35010440029A4BF10BC7047401C20
:10032000490008BF20F0010010BC7047064C074D83
:1003300006E0E06840F0010394E8070098471034B5
:10034000AC42F6D3FFF7D6FEDC240008FC240008FC
:10035000014800F0EDB800003400002070B50446FC
:1003600000688168C943C90717D1816821F001017C
:10037000816000F059FC05460AE000BF00F054FC23
:10038000401B022804D920688068C043C00706D0FB
:1003900020688068C043C007F0D0002070BDA06A0C
:1003A00040F01000A062E06A40F00100E06201202D
:1003B00070BDFEE7014800F053BA00006400002061
:1003C000014800F04DBA000000010020014800F093
:1003D00047BA000044010020704772B6FEE770473C
:1003E000F8B50024009490F824202546012A12D064
:1003F000012280F824204A681F23072A0DD20668AC
:10040000776B521E02EB820293409F430B6893402E
:100410001F43776319E00220F8BD06680D2A0AD24F
:10042000376BD21F02EB820293409F430B689340CD
:100430001F43376309E0F76A0D3A02EB82029340EB
:100440009F430B6893401F43F7620A6807230668BF
:100450000A2A0AD3F7680A3A02EB420293409F4302
:100460008B6893401F43F76008E0376902EB420254
:1004700093409F438B6893401F4337610A68102A5B
:1004800001D0112A20D1124B02689A4217D19368E9
:100490001B0219D4936843F4000393600968102980
:1004A00012D10C490C4A0968B1FBF2F101EB810150
:1004B000490000E0491E00910029FBD104E0816A57
:1004C00041F020018162012480F824502046F8BDCB
:1004D000002401400C00002040420F0070B5114C78
:1004E000114DA088A085E188E185618E2A4601F042
:1004F00075FFA085A18EE08D2A4601F06FFFE08593
:10050000A18D6186094DA0860421284600F082FB5A
:1005100028B10421284600F07DFB012800D1208667
:1005200070BD0000180200209A99993E000C01400D
:1005300070B50446006806684568A90625D5B10768
:1005400023D5A16AC90603D4A16A41F40071A1624E
:100550008168C1F34241072910D1217B71B94168FB
:1005600021F020014160A06A20F48070A062A06A9E
:10057000C00403D4A06A40F00100A0622046FFF747
:10058000ADFF21686FF01200086028062ED57007B5
:100590002CD5A06AC00603D4A06A40F40050A06223
:1005A00020688168C1F30231072909D041684905F3
:1005B00015D48168C1F34241072910D1217B71B95B
:1005C000416821F080014160A06A20F48050A0625F
:1005D000A06AC00503D4A06A40F00100A0622046D2
:1005E000FFF7FDFE21686FF00C00086068060CD56F
:1005F000F0070AD0A06A40F48030A062204600F0E4
:1006000093F821686FF00100086070BD2DE9F0419A
:100610004FF0000704003D467ED0A06A002628B9AE
:10062000E66284F82460204600F080F82046FFF758
:1006300095FEA16AC90600D420B1A06A40F010005E
:10064000A06269E0A16A21F4885141F00201A1622F
:100650006268E169237B0A4347EA43010A43A168D0
:100660004FF48077B94209D0012907D05FF000012B
:1006700094F814C0BCF1010F02D00AE03946F7E744
:10068000F3B1A36A43F02003A362E36A43F00103DA
:10069000E3622368D3F804C02CF4694C4CEA010CE3
:1006A000C3F804C021688B68DFF870C003EA0C034C
:1006B00013438B60A168B9420BD0012909D00CE02B
:1006C000DFF85CC0A3690CEB43330B4343F40061D8
:1006D000DFE7218A0D05A5F580152168CB6A23F493
:1006E00070032B43CB62216889680E4B19409142FD
:1006F00008D1E662A16A21F0020141F00101A16284
:10070000BDE8F081A06A20F0020040F01000A06275
:10071000E06A40F00100E0620120F1E7FDF7E1FF4F
:1007200000E0FFFFFE0E1FFF7047000070B586B0AF
:1007300000250646009501950295039500681D4920
:10074000884235D11C49886940F400708861886905
:1007500000F400700490886940F0040088618869A2
:10076000694600F0040004900320009001901348B3
:1007700000F060F9134C1248C4E900058020C4E978
:10078000025040002061800060612020C4E906051D
:10079000204600F00FF908B1FFF71FFE3462002277
:1007A00011461220666200F0ABFA122000F09AFAAD
:1007B00006B070BD00240140001002400008014056
:1007C000080002406400002010B590F821100024B9
:1007D000022903D00421816301243DE001680A68F5
:1007E00022F00E020A6001680A6822F001020A6023
:1007F0001A4A0168914201D1012121E0174A1432BD
:10080000914201D110211BE0144A2832914201D1BA
:10081000891515E0114A3C32914201D189140FE04B
:100820000E4A5032914202D14FF4803108E00B4A17
:100830006432914202D14FF4801101E04FF0807197
:10084000064A083A5160012180F82110002180F801
:100850002010416B01B18847204610BD08000240BE
:100860002DE9F05FC16B0C6801680B68D0F840C0DF
:10087000042202FA0CF2494DDFF824A1494E4A4FF6
:10088000DFF828B1DFF828E122422CD05A072AD518
:100890000A68920603D40A6822F004020A6001681A
:1008A000A94201D1042219E0514501D1402215E0AD
:1008B000B14202D14FF4806210E0B94202D14FF44C
:1008C00080420BE0594502D14FF4802206E0714589
:1008D00002D14FF4800201E04FF080622F490839C5
:1008E0004A60C16A3BE04FF0020808FA0CF818EAC7
:1008F000040F4FF000094FF0010235D05FEA837812
:1009000032D50B689B0605D40B6823F00A030B60F5
:1009100080F821200168A94201D1022219E0514545
:1009200001D1202215E0B14202D14FF4007210E053
:10093000B94202D14FF400520BE0594502D14FF4B5
:10094000003206E0714502D14FF4001201E04FF091
:100950000072124908394A6080F82090816A0029A3
:100960001AD0BDE8F05F0847082505FA0CF52542C6
:1009700012D01B0710D50B6823F00E030B6090F804
:100980004010C36B02FA01F15960826380F82120A4
:1009900080F82090016BE2E7BDE8F09F080002407C
:1009A0001C00024030000240440002405800024057
:1009B0006C00024030B528B308C81349142219440A
:1009C000B1FBF2F18900C1631049816302214177D3
:1009D0001A6843F6F0718A43D0E900142143D0E944
:1009E00002452C432143046921434469214384691E
:1009F00021431143196000214163012242770177AD
:100A0000084630BD012030BDF8FFFDBF00000240A8
:100A100070B5044600F008F90546601C02D0044891
:100A20000078044400F000F9401BA042FAD370BDE6
:100A3000000000202DE9F84FDFF8B8910024A9F15B
:100A4000040B23460F2709F1040AABF1040EC9E099
:100A50000125A5402A40AA427DD1674ED1F804C0A5
:100A6000ACEB0608B44532D014DCBCF1030F3AD02D
:100A700009DCBCF1000F2AD0BCF1010F1CD0BCF185
:100A8000020F31D11DE0BCF1110F17D0BCF1120FD4
:100A90002AD119E0B8F5881F19D006DCB8F5803FD7
:100AA00015D0B8F5801F1FD111E0B8F5001F0ED08A
:100AB000B8F5041F18D10AE0CB6815E0CB681B1D00
:100AC00012E0CB6808330FE0CB680C330CE08B6886
:100AD0002BB1012B4FF0080303D0456104E0042340
:100AE00002E0056100E00023FF2A01D8064601E08C
:100AF00000F104064FEA840501D9A5F12005D6F8D6
:100B0000008007FA05FC28EA0C0803FA05F548EA14
:100B10000508C6F800804D68ED0062D5374DAE6916
:100B200046F00106AE61AD6924F0030605F001054B
:100B30000095334D06EB050CDCF80850A607360F80
:100B400007FA06F825EA0805DFF8B880404503D122
:100B50004FF0000817E044E0DFF8AC80404502D1D8
:100B60004FF001080FE0DFF8A480404502D14FF0BC
:100B7000020808E0DFF89880404502D14FF00308F2
:100B800001E04FF0040808FA06F848EA0508CCF836
:100B900008804D68D9F80060ED024D4601D5164336
:100BA00000E096432E604D68DAF80060AD025546CD
:100BB00001D5164300E096432E604D68DBF80060D7
:100BC000AD035D4601D5164300E096432E604D68A7
:100BD000DEF80060ED03754601D5164300E096434C
:100BE0002E60641C0D682A46E5407FF431AFBDE8F5
:100BF000F88F0000080401400000111000100240AE
:100C00000000014000080140000C014000100140BC
:100C1000001401408068084000D0012070470AB1EC
:100C2000016170470904FBE70148806870470000D4
:100C300000000020024881680278114481607047FA
:100C400000000020074810B5016841F01001016064
:100C5000032000F075F80F2000F006F800F024F8EB
:100C6000002010BD0020024070B50D4D04464FF429
:100C70007A712878B1FBF0F00A490968B1FBF0F00D
:100C800000F088FC48B9102C07D200222146501EE3
:100C900000F036F800206C6070BD012070BD0000CF
:100CA000000000200C0000200C4808B5816941F0CC
:100CB00001018161816901F001010091C16941F087
:100CC0008051C161C06900F08050009004484168C3
:100CD00021F0E06141F00071416008BD0010024068
:100CE00000000140002809DB00F01F0201219140B3
:100CF0004009800000F1E020C0F8001170470000BA
:100D0000F0B40E4B1B680C46C3F30223C3F1070576
:100D1000042D00D90425191D072901D2002300E064
:100D2000DB1E012606FA05F1491E214099409E402E
:100D3000761E16403143F0BC01F086BA0CED00E09F
:100D4000064900F0070208684FF6FF03184040EA22
:100D50000220034A10430860704700000CED00E0D9
:100D60000000FA052DE9F84305460078354CC00728
:100D700054D0E0690026C00008D4E06940F08050FB
:100D8000E061E069012600F0805000902E48016883
:100D9000C90512D40168804641F480710160FFF7F3
:100DA00043FF074605E000BFFFF73EFFC01B642876
:100DB00023D8D8F80000C005F6D5206A10F440709A
:100DC00021D0A98801F4407181421CD0206A1F49BA
:100DD000012220F440700A6000220A602062C007ED
:100DE00011D0FFF721FF074641F2883808E000BF25
:100DF000FFF71AFFC11B414502D90320BDE8F88364
:100E0000206A8007F4D5206A696820F4407008439E
:100E100020621EB1E06920F08050E06128788007F0
:100E200005D56068A96820F44040084360602878D0
:100E3000C00605D56068E96820F48000084360605A
:100E40000020DBE7001002400070004040044242F6
:100E50002DE9F0470F46050061D0434E306800F0A1
:100E60000700B84209D2306820F0070038433060EC
:100E7000306800F00700B84251D128683B4C810728
:100E800012D5400703D5606840F4E06060602878C0
:100E9000000703D5606840F4605060606068A9682E
:100EA00020F0F000084360602878C00728D0686808
:100EB000012810D02168022810D0890700292EDAD5
:100EC000616821F0030101436160FFF7ADFE8046D8
:100ED00041F288390DE021688903EFE78901EDE7E8
:100EE000FFF7A2FEA0EB0801494502D90320BDE8A7
:100EF000F0876068696800F00C00B0EB810FEFD1FB
:100F0000306800F00700B8420BD9306820F00700C5
:100F100038433060306800F00700B84201D001204B
:100F2000E5E72878400705D56068E96820F4E060C7
:100F3000084360602878000706D56068296920F4B6
:100F4000605040EAC100606000F038F86168084A0B
:100F5000C1F30311515CC8400649086006480068A7
:100F6000FFF782FE0020C2E700200240001002408E
:100F7000BE2400080C00002004000020044805499D
:100F800000684968044AC1F30221515CC8407047B7
:100F90000C00002000100240CE240008044805493F
:100FA00000684968044AC1F3C221515CC8407047D7
:100FB0000C00002000100240CE2400080E4A5168A8
:100FC0000E4801F00C03042B11D0082B0FD10C4854
:100FD000C1F38343C903C05C0AD55168084AC1F311
:100FE0004041921E515C054A5043B0FBF1F07047FE
:100FF00004494843704700000010024000127A0084
:10100000AE24000800093D002DE9F84F040070D01F
:101010002078C04DC00749D06868C0F3810001281E
:1010200007D06868C0F38100022809D16868C0034E
:1010300006D52868800339D560680028E7D035E0F8
:101040006068B0F5803F0BD010B1B0F5A02F11D083
:10105000286820F480302860286820F4802002E08E
:10106000286840F480302860606890B1FFF7DCFDAC
:1010700006460AE0286840F480202860F0E700BFB8
:10108000FFF7D2FD801B642873D828688003F7D54A
:101090000CE0FFF7C9FD064605E000BFFFF7C4FD01
:1010A000801B6428F0D828688003F7D420789A4EF3
:1010B00080074FF001094FF0000839D5686810F03B
:1010C0000C0F07D06868C0F38100022809D1686856
:1010D000C00306D42868800714D52069012808D1E8
:1010E00010E02069B0B1C6F80090FFF79DFD0746FB
:1010F00005E00AE1FFF798FDC01B0228C4D8286864
:101100008007F7D52868616920F0F80040EAC1003F
:1011100028600DE0C6F80080FFF786FD074604E072
:10112000FFF782FDC01B022823D828688007F7D468
:10113000207800072CD57948A169D9B1C0F8009072
:10114000FFF772FD074604E0FFF76EFDC01B0228A3
:101150000FD8686A8007F7D571484FF4FA510068D4
:10116000B0FBF1F0009000BF0098411E0091FAD250
:101170000EE080E0C0F80080FFF756FD074604E06F
:10118000FFF752FDC01B022875D8686A8007F7D4A4
:101190002078400760D5E8690027C00008D4E869D6
:1011A00040F08050E861E869012700F0805000902D
:1011B0005C480168C90513D40168834641F4807115
:1011C0000160FFF731FD824606E000BFFFF72CFD0E
:1011D000A0EB0A0064284ED8DBF80000C005F5D566
:1011E000E06801280AD008B1052813D0286A20F049
:1011F00001002862286A20F0040002E0286A40F01A
:1012000001002862E06841F2883B98B1FFF70CFDCD
:1012100082460BE0286A40F004002862EEE700BF37
:10122000FFF702FDA0EB0A0159455AD8286A80074A
:10123000F6D50CE0FFF7F8FC824605E0FFF7F4FC7A
:10124000A0EB0A0159454CD8286A8007F6D41FB193
:10125000E86920F08050E861E06988B36968C1F30B
:101260008101022944D00228C6F8608004D0FFF72B
:10127000DBFC044638E034E0FFF7D6FC074604E028
:10128000FFF7D2FCC01B02282BD828688001F7D4B6
:10129000206AB0F5803F05D16868A16820F400306D
:1012A00008436860D4E908010843696821F47411AF
:1012B00008436860C6F86090FFF7B6FC044606E095
:1012C00025E000BFFFF7B0FC001B022809D8286802
:1012D0008001F7D51BE000BFFFF7A6FC001B02282A
:1012E00002D90320BDE8F88F28688001F4D40EE00D
:1012F0000128F7D06868226A00F48031914204D155
:10130000616A00F47010884201D00120EAE70020F1
:10131000E8E7000000100240000042428004424220
:101320000C000020007000407047000038B50446F3
:10133000006842688168C9434B0606D5CB0704D1D3
:10134000D3435B0601D4216C05E08B0708D4D3435B
:101350001B0605D4616C01B02046BDE8304008474B
:101360008B0601D54B0646D4D3439B0643D44B068C
:101370000AD494F85130032B3ED0636D43F004033C
:101380006365C36883680093890609D4616D41F081
:101390000101616581680091016821F040010160EF
:1013A000606D002827D02068416821F0E00141608D
:1013B000012084F85100900722D02068416821F074
:1013C00003014160104DE06C40B14563E06CFFF7F4
:1013D000FBF918B1606D40F040006065A06C00281A
:1013E00009D04563A06CFFF7EFF9002803D0606DCA
:1013F00040F04000606538BDC1688068009038BD2D
:101400002046FFF791FF38BD311F000870B504007A
:1014100009D0606A002540B125616561A56294F834
:10142000510040B10CE0012070BD6068B0F5827FD2
:10143000F4D0E561F2E784F85050204600F040F81F
:10144000022084F851002068016821F04001016009
:10145000A088218900F4827001F404410843A18925
:1014600001F400610843217C01F002010843217D61
:1014700001F001010843218B01F400710843217F31
:1014800001F03801084394F8201001F0800108436E
:10149000218D01F40051084321680860A0690421EE
:1014A00001EA1040216848602068C16921F40061A8
:1014B000C1616565012084F85100002070BD000005
:1014C000F0B585B00024064600940194029403947C
:1014D00000682B49884251D12A48816941F48051E2
:1014E0008161816901F480510491816941F00401B5
:1014F00081618069244D00F004000490A0200090D8
:1015000069462846FFF796FA402000900220019095
:101510000320039069462846FFF78CFA1C4D1B48B0
:101520008027C5E90004C5E902472C616C61AC6104
:101530002846EC61FFF73EFA08B1FEF74EFFF5646E
:101540006E62134D11484435143001C5102091C509
:101550000F4845F8104944306C61AC61EC61FFF70D
:1015600029FA08B1FEF739FFB5640022114623209D
:101570006E62FFF7C5FB2320FFF7B4FB05B0F0BD9B
:101580000030014000100240000801401C000240F1
:101590000001002010B5401EB0F1807F01D3012072
:1015A00010BD4FF0E02460610F21601700F04CFE89
:1015B0000020A06107202061002010BD7047704707
:1015C00070B590F83C20012A26D0012480F83C40D8
:1015D000022280F83D2003685A689D6822F0700658
:1015E0000A6832435A600D4B02689A4208D0B2F141
:1015F000804F05D00A4B9A4202D00A4B9A4204D13E
:10160000496825F080031943916080F83D4000212E
:1016100080F83C10084670BD022070BD002C0140CF
:10162000000400400008004010B5040003D094F806
:101630003D0010B107E0012010BD002084F83C00FF
:10164000204600F01FF8022084F83D00211D20688C
:1016500000F0BCFC012084F8460084F83E0084F8C9
:101660003F0084F8400084F8410084F8420084F888
:10167000430084F8440084F8450084F83D000020CD
:1016800010BD000008B500680B49884212D10B4814
:10169000C16941F00201C161C069002200F002008D
:1016A000009011461D20FFF72BFBBDE808401D20D0
:1016B000FFF718BB08BD0000000400400010024006
:1016C00070B5044690F83C000025012817D001268B
:1016D00084F83C60022084F83D002068826822F093
:1016E000770222F47F4282600868502838D00DDCEF
:1016F00020284FD005DC90B3102811D14AE00220F9
:1017000070BD302846D040280AD13BE060282FD059
:1017100070280DD0B0F5805F03D0B0F5005F12D017
:10172000012584F83D60002084F83C00284670BD07
:10173000CB68D1E90121206800F084FC2068816831
:1017400041F0770109E0CB68D1E90121206800F080
:1017500079FC2068816841F480418160E1E719E00B
:10176000CA684968206800F07FFC5021206806E0C4
:10177000CA684968206800F088FC6021206800F091
:101780006BFCCEE7CA684968206800F06DFC402118
:101790002068F4E7226801461046F0E770472DE91B
:1017A000F04104460068C66805694FF00007A907C4
:1017B00013D5B10711D5F91E0161012020772068EA
:1017C00080698007204602D0FFF7E8FF04E000F0C0
:1017D0007EF8204600F07CF82777680716D570075A
:1017E00014D521686FF0040008610220207720687A
:1017F000806910F4407F204602D0FFF7CFFF04E05D
:1018000000F065F8204600F063F82777280715D523
:10181000300713D521686FF0080008610420207795
:101820002068C0698007204602D0FFF7B7FF04E0B8
:1018300000F04DF8204600F04BF82777E80616D563
:10184000F00614D521686FF0100008610820207799
:101850002068C06910F4407F204602D0FFF79EFF49
:1018600004E000F034F8204600F032F82777E8076B
:1018700008D0F00706D021686FF00100086120460B
:1018800000F027F8280608D5300606D521686FF045
:10189000800008612046FFF791FE680608D57006B3
:1018A00006D521686FF040000861204600F012F86C
:1018B000A8060AD5B00608D521686FF02000086197
:1018C0002046BDE8F041FFF77ABEBDE8F0817047E1
:1018D00070477047704770B5040004D094F8410019
:1018E000002510B106E0012070BD84F8405020466C
:1018F00000F024F8242084F841002068C16821F415
:101900000051C160204600F0F9FB2068016921F414
:10191000904101612068416921F02A0141612068FC
:10192000C16841F40051C1606564202084F8410021
:1019300084F842006563002070BD000030B585B0BA
:10194000002400940194029403940068144988428E
:1019500024D11448816941F480418161816901F495
:1019600080410491816941F00401816180690E4DDB
:1019700000F0040004904FF40070009002200190E9
:101980000320039069462846FFF754F82815CDE94F
:101990000004694628460294FFF74CF805B030BDB4
:1019A0000038014000100240000801402DE9F843D2
:1019B000044690F84100984616460D46202802D06D
:1019C0000220BDE8F88385B17EB10020606421204B
:1019D00084F84100FFF728F9A6848146E684A068D0
:1019E0002027B0F5805F02D003E00120E9E72069FD
:1019F00010B12E4600250EE000260CE08021204686
:101A000000F0D8FBA8B9C6B116F8010B21684860F0
:101A1000E08C401EE084E08C4B464FF00002CDF895
:101A200000800028EAD14FF04001204600F0C2FBC0
:101A300040B184F841700320C3E735F8020BC0F3CE
:101A40000800E3E784F841700020BAE7FEE70000F1
:101A50003EB5002416480094019414490294016094
:101A6000891581600473047502250561C90244600B
:101A7000C161FEF7CBFD08B1FEF7AFFC0094012475
:101A80000520CDE9014069460948FEF7A9FC08B1E7
:101A9000FEF7A3FC69460648CDE90045FEF7A0FC29
:101AA000002801D0FEF799FC3EBD00000024014053
:101AB00034000020114808B5416941F0010141613D
:101AC0004069002200F00100009011460B20FFF752
:101AD00017F90B20FFF706F9002211460C20FFF73B
:101AE0000FF90C20FFF7FEF8002211460D20FFF73A
:101AF00007F9BDE808400D20FFF7F4B800100240D8
:101B00002DE9F04385B000253A48009501950295EE
:101B10000395816941F010018161816901F0100133
:101B20000491816941F020018161816901F0200106
:101B30000491816941F004018161816901F004012E
:101B40000491816941F00801816180692A4F00F0A8
:101B500008004FF480440490002221463846FFF7E5
:101B60005EF8DFF89890002202214846FFF757F808
:101B7000DFF88C80A611002231464046FFF74FF86F
:101B8000012250214846FFF74AF800940124CDE98C
:101B90000145694638460394FEF74CFF02208DE864
:101BA0003100694648460394FEF744FF0C20CDE916
:101BB0000005694602944846FEF73CFF0096CDE9D1
:101BC0000145694640460394FEF734FFE003CDE942
:101BD0000005694602944046FEF72CFF50208DE830
:101BE00031000320039069464846FEF723FF05B005
:101BF000BDE8F0830010024000100140000C0140DD
:101C0000000801400E4810B50C49016000214160F8
:101C10008160C1604FF400720161C0E90512016288
:101C2000416281620A21C162FFF7F0FB002803D004
:101C3000BDE81040FEF7D1BB10BD000000300140F0
:101C4000A800002010B586B0002417480094019425
:101C50000294039404941349059401604721C0E958
:101C600001140A21C0E9031480218161FFF7DCFC23
:101C700008B1FEF7B2FB4FF48050009069460A4865
:101C8000FFF71EFD08B1FEF7A8FB2020CDE90404F4
:101C900004A90548FFF794FC002801D0FEF79DFB3E
:101CA00006B010BD00040040880100200C4810B5AB
:101CB0000A4901604FF416514160002181600C22F5
:101CC000C160C0E904128161C161FFF704FE002810
:101CD00003D0BDE81040FEF780BB10BD00380140C6
:101CE000D0010020FEE7FEE72DE9F04190460C46CA
:101CF00042691E460546002190476A6821462846EB
:101D000090470746002406E06A68FF21284690476E
:101D100008F80400641CB442F6DD0121284600F0F6
:101D200093F83846BDE8F08170B50D464269044627
:101D30000021904762682946204690476268FF214B
:101D40002046904705466269012120469047284673
:101D500070BD000070B50D460646012100F080F808
:101D600007213046FFF7E0FF0446024627213046B0
:101D700000F049F8A00602D50BA000F055FA600665
:101D80000FD520232A4661213046FFF7ADFFFF2201
:101D9000E221304600F037F807A000F045FA0020B5
:101DA00070BD012070BD000052582073656E642024
:101DB00061636B210D0A0000525820726561642036
:101DC00064617461210D0A002DE9F04190460C46D2
:101DD00042691E460546002190476A68214628460A
:101DE00090470746002405E06A6818F80410284662
:101DF0009047641CB442F7DD6A6901212846904788
:101E00003846BDE8F08170B50D4643691646044674
:101E10000021984762682946204690470546626837
:101E20003146204690476269012120469047284666
:101E300070BD006802689388106819B100221946C5
:101E4000FEF7EDBE0122FAE70068012902689389D6
:101E5000906803D000221946FEF7E1BE0122FAE79E
:101E600010B5044631B3012900D0FEE70021FFF789
:101E7000E0FF0523294A2A212046FFF7A5FF01227A
:101E800021212046FFF7BFFF012222212046FFF734
:101E9000BAFF282225212046FFF7B5FF2022312155
:101EA0002046FFF7B0FF0F2226212046FFF7ABFFA9
:101EB0000F2228E00021FFF7BCFF0523174A30213D
:101EC0002046FFF781FF0523144A2A212046FFF709
:101ED0007BFF012221212046FFF795FF01222221CD
:101EE0002046FFF790FF1A2224212046FFF78BFFA0
:101EF000282225212046FFF786FF0F222621204693
:101F0000FFF781FF0E2220212046FFF77CFF2046AD
:101F1000BDE810400121FFF78CBF0000D624000867
:101F2000704700000148FFF701BA0000A800002038
:101F300010B5406A0021C187C186FFF7F5F910BDD1
:101F40007047FEF777BE30B593B028216846FEF79C
:101F5000F2F814210AA8FEF7EEF8002501200F95EB
:101F600010951195010412958DE8230004904FF40B
:101F7000E010CDE90810022407946846FFF744F802
:101F800008B172B6FEE70AA90F2081E831004FF4CC
:101F90008060CDE90D0502210AA8FEF759FF08B1BE
:101FA00072B6FEE74FF4004011900F940FA8FEF7B1
:101FB000D9FE002801D072B6FEE713B030BD7047DD
:101FC0000148FFF7ECBB000088010020F0B5026873
:101FD000194B1A4C1A4D4FF08047984205D0B84221
:101FE00003D0A04201D0A84203D122F070064A6873
:101FF0003243984205D0B84203D0A04201D0A84253
:1020000003D122F44074CA6822434C6922F0800252
:10201000224302608A68C2620A688262984201D1E1
:1020200009690163012141610169C90703D001699F
:1020300021F001010161F0BD002C014000040040CD
:102040000008004010B5846842EA032224F47F446B
:102050000A432243826010BD826822F070020A4364
:1020600042F007018160704710B5036A046A24F0EA
:1020700001040462846924F0F00444EA021423F0A9
:102080000A020A438461026210BD10B5036A046A41
:1020900024F010040462846923F0A00324F4704443
:1020A00044EA023243EA01118261016210BD016813
:1020B0000C3151E8002F22F4907241E80023002BEC
:1020C000F5D10168143151E8002F22F0010241E8F6
:1020D0000023002BF5D1016B012909D101680C31D6
:1020E00051E8002F22F0100241E80023002BF5D127
:1020F000202180F8421000210163704770B504462A
:1021000000680169E26821F44051114301612169CD
:10211000A0680843616908432168CA6841F20C63FA
:102120009A430243CA6020684169A26921F4407160
:10213000114341611E492068884202D1FEF72EFFFB
:1021400001E0FEF71BFF00EBC00101EB001260682D
:1021500064218000B2FBF0F3B3FBF1F36FF01806DB
:102160007343B2FBF0F5B2FBF0F605EB83053223C7
:1021700003EB0515B5FBF1F5B6FBF1F605F0F0053F
:1021800005EB0615B2FBF0F6B2FBF0F0B0FBF1F098
:102190006FF01802504306EB800003EB0010B0FB19
:1021A000F1F0216800F00F002844886070BD000045
:1021B000003801402DE9F843984617460D4604467D
:1021C000089E24E0701C22D0FEF72EFDA0EB080034
:1021D000B0421AD8CEB12068C168490717D5802D02
:1021E00015D0402D13D00168C94309070FD40168E9
:1021F0000025406800902046FFF759FF08206064E2
:1022000084F840500120BDE8F8830320FBE72068F4
:10221000006835EA000004D00020B842D2D0002087
:10222000F1E70120F9E7FEE70FB4054B10B503A96C
:10223000044A029800F028F810BC5DF814FB000076
:1022400019240008100000200907090E002804DBEB
:1022500000F1E02080F80014704700F00F0000F15A
:10226000E02080F8141D704702E008C8121F08C162
:10227000002AFAD170477047002001E001C1121F07
:10228000002AFBD1704700002DE9FF4F89B09B4623
:102290000446002506E025280BD05A460B999047A6
:1022A000641C6D1C20780028F5D10DB02846BDE8CF
:1022B000F08F0027B8460122474900E0074314F891
:1022C000013F203B02FA03F00842F7D120782E2884
:1022D00019D114F8010F47F004072A280ED06FF027
:1022E0002F022078A0F1300109290CD808EB8801D1
:1022F00002EB410100EB0108641CF2E70A98641C40
:1023000050F8048B0A9020780028CED0642808D09A
:10231000692806D075281ED05A460B9990476D1C27
:1023200058E00A994FF00A0901C90A91002802DA17
:1023300040422D2102E0390504D52B218DF82010D3
:10234000012103E0F90704D02021F7E78A4608AE0F
:102350000DE00021FAE70A994FF00A0901C90A9134
:10236000F7E74946FDF795FF303106F8011D0028D3
:10237000F7D1ADEB060000F12009780701D44FF04A
:102380000108C84502DDA8EB090000E000208046F6
:10239000002706E008A85A46C05D0B9990476D1CBF
:1023A0007F1C5745F6DB04E030205A460B999047D6
:1023B0006D1CB8F10001A8F10108F5DC05E016F884
:1023C000010B5A460B9990476D1CB9F10001A9F118
:1023D0000109F4DC641C65E70928010070B50546B5
:1023E00016460846FDF73CFF044631464FF07E5046
:1023F000FDF7FEFE2146FDF701FF04462846FDF7E6
:102400002FFF3146FDF7FAFE2146FDF79FFEFDF74F
:102410002CFF80B270BD000013B54FF6FF73012290
:1024200069460248FFF7C2FA00981CBDD00100209F
:10243000FEF708FCFFF787FDFFF762FBFFF73AFBAB
:10244000FFF7E0FBFFF732FCFFF702FBFFF7FAFBB9
:102450000CA0FFF7E9FE0E4D6420FEF7D9FA0C49F7
:102460000C48FFF777FC0028F6D10BA0FFF7DCFE45
:1024700000240CA0295DFFF7D7FE641C202CF8DD9A
:10248000EAE70000B3F5CABCB9FE0D0A000000007F
:10249000140000205002002073656E645FB3C9B958
:1024A000A60D0A0025640D0A0000000001020203C7
:1024B0000405060708090A0B0C0D0E0F101000008A
:1024C00000000000000001020304060708090000E4
:1024D000000001020304023AB1B10100FC2400082B
:1024E00000000020140000006822000810250008E9
:1024F000140000206406000078220008010000009B
:10250000100000000000000000127A00000000002F
:04000005080000ED02
:00000001FF
